{
  "contractName": "Adoption",
  "abi": [
    {
      "inputs": [],
      "payable": false,
      "stateMutability": "nonpayable",
      "type": "constructor"
    },
    {
      "anonymous": false,
      "inputs": [
        {
          "indexed": true,
          "internalType": "uint256",
          "name": "_petid",
          "type": "uint256"
        }
      ],
      "name": "voteevent",
      "type": "event"
    },
    {
      "constant": true,
      "inputs": [
        {
          "internalType": "uint256",
          "name": "",
          "type": "uint256"
        }
      ],
      "name": "Pet",
      "outputs": [
        {
          "internalType": "uint256",
          "name": "PetsID",
          "type": "uint256"
        },
        {
          "internalType": "string",
          "name": "PetName",
          "type": "string"
        },
        {
          "internalType": "uint256",
          "name": "votecount",
          "type": "uint256"
        }
      ],
      "payable": false,
      "stateMutability": "view",
      "type": "function"
    },
    {
      "constant": true,
      "inputs": [
        {
          "internalType": "uint256",
          "name": "",
          "type": "uint256"
        }
      ],
      "name": "adopters",
      "outputs": [
        {
          "internalType": "address",
          "name": "",
          "type": "address"
        }
      ],
      "payable": false,
      "stateMutability": "view",
      "type": "function"
    },
    {
      "constant": true,
      "inputs": [],
      "name": "petcounts",
      "outputs": [
        {
          "internalType": "uint256",
          "name": "",
          "type": "uint256"
        }
      ],
      "payable": false,
      "stateMutability": "view",
      "type": "function"
    },
    {
      "constant": true,
      "inputs": [
        {
          "internalType": "address",
          "name": "",
          "type": "address"
        }
      ],
      "name": "voters",
      "outputs": [
        {
          "internalType": "bool",
          "name": "",
          "type": "bool"
        }
      ],
      "payable": false,
      "stateMutability": "view",
      "type": "function"
    },
    {
      "constant": false,
      "inputs": [
        {
          "internalType": "uint256",
          "name": "petId",
          "type": "uint256"
        }
      ],
      "name": "adopt",
      "outputs": [
        {
          "internalType": "uint256",
          "name": "",
          "type": "uint256"
        }
      ],
      "payable": false,
      "stateMutability": "nonpayable",
      "type": "function"
    },
    {
      "constant": true,
      "inputs": [],
      "name": "getAdopters",
      "outputs": [
        {
          "internalType": "address[16]",
          "name": "",
          "type": "address[16]"
        }
      ],
      "payable": false,
      "stateMutability": "view",
      "type": "function"
    },
    {
      "constant": false,
      "inputs": [
        {
          "internalType": "uint256",
          "name": "_petid",
          "type": "uint256"
        }
      ],
      "name": "vote",
      "outputs": [],
      "payable": false,
      "stateMutability": "nonpayable",
      "type": "function"
    }
  ],
  "bytecode": "0x608060405234801561001057600080fd5b506100556040518060400160405280600581526020017f426172667900000000000000000000000000000000000000000000000000000081525061009e60201b60201c565b6100996040518060400160405280600481526020017f4a6f4a6f0000000000000000000000000000000000000000000000000000000081525061009e60201b60201c565b6101bd565b60008081548092919060010191905055506040518060600160405280600054815260200182815260200160008152506001600080548152602001908152602001600020600082015181600001556020820151816001019080519060200190610107929190610118565b506040820151816002015590505050565b828054600181600116156101000203166002900490600052602060002090601f016020900481019282601f1061015957805160ff1916838001178555610187565b82800160010185558215610187579182015b8281111561018657825182559160200191906001019061016b565b5b5090506101949190610198565b5090565b6101ba91905b808211156101b657600081600090555060010161019e565b5090565b90565b610659806101cc6000396000f3fe608060405234801561001057600080fd5b506004361061007d5760003560e01c80635f9ba5151161005b5780635f9ba51514610164578063687cebe0146101825780638588b2c514610237578063a3ec138d146102795761007d565b80630121b93f146100825780633de4eb17146100b057806343ae80d3146100f6575b600080fd5b6100ae6004803603602081101561009857600080fd5b81019080803590602001909291905050506102d5565b005b6100b86103f4565b6040518082601060200280838360005b838110156100e35780820151818401526020810190506100c8565b5050505090500191505060405180910390f35b6101226004803603602081101561010c57600080fd5b8101908080359060200190929190505050610475565b604051808273ffffffffffffffffffffffffffffffffffffffff1673ffffffffffffffffffffffffffffffffffffffff16815260200191505060405180910390f35b61016c6104a8565b6040518082815260200191505060405180910390f35b6101ae6004803603602081101561019857600080fd5b81019080803590602001909291905050506104ae565b6040518084815260200180602001838152602001828103825284818151815260200191508051906020019080838360005b838110156101fa5780820151818401526020810190506101df565b50505050905090810190601f1680156102275780820380516001836020036101000a031916815260200191505b5094505050505060405180910390f35b6102636004803603602081101561024d57600080fd5b8101908080359060200190929190505050610570565b6040518082815260200191505060405180910390f35b6102bb6004803603602081101561028f57600080fd5b81019080803573ffffffffffffffffffffffffffffffffffffffff1690602001909291905050506105e1565b604051808215151515815260200191505060405180910390f35b600260003373ffffffffffffffffffffffffffffffffffffffff1673ffffffffffffffffffffffffffffffffffffffff16815260200190815260200160002060009054906101000a900460ff161561032c57600080fd5b60008111801561033d575060005481105b61034657600080fd5b6001600260003373ffffffffffffffffffffffffffffffffffffffff1673ffffffffffffffffffffffffffffffffffffffff16815260200190815260200160002060006101000a81548160ff0219169083151502179055506001600082815260200190815260200160002060020160008154809291906001019190505550807fc95e87b3464357bcf5d85d175b16085e4a0bd331a985f9305ebae2d023f9c4d560405160405180910390a250565b6103fc610601565b600360108060200260405190810160405280929190826010801561046b576020028201915b8160009054906101000a900473ffffffffffffffffffffffffffffffffffffffff1673ffffffffffffffffffffffffffffffffffffffff1681526020019060010190808311610421575b5050505050905090565b6003816010811061048257fe5b016000915054906101000a900473ffffffffffffffffffffffffffffffffffffffff1681565b60005481565b6001602052806000526040600020600091509050806000015490806001018054600181600116156101000203166002900480601f0160208091040260200160405190810160405280929190818152602001828054600181600116156101000203166002900480156105605780601f1061053557610100808354040283529160200191610560565b820191906000526020600020905b81548152906001019060200180831161054357829003601f168201915b5050505050908060020154905083565b60008082101580156105835750600f8211155b61058c57600080fd5b336003836010811061059a57fe5b0160006101000a81548173ffffffffffffffffffffffffffffffffffffffff021916908373ffffffffffffffffffffffffffffffffffffffff160217905550819050919050565b60026020528060005260406000206000915054906101000a900460ff1681565b60405180610200016040528060109060208202803883398082019150509050509056fea265627a7a723158203fcf85bc06a16674f742be317c476e1c23283fbf428784dbf71a373ccf63d5c064736f6c63430005100032",
  "source": "pragma solidity ^0.5.0;\n\ncontract Adoption {\n\n//Election Function Adapted From Election DAPP\n\nuint public petcounts;\n\nstruct Pets {\n  uint PetsID;\n  string PetName;\n  uint votecount;\n}\n\n//mappings for pet and voters\nmapping(uint => Pets) public Pet;\nmapping(address => bool) public voters;\n\naddress[16] public adopters;\n\n\nconstructor () public {\n  addpets('Barfy');\n  addpets('JoJo');\n}\n// Adopting a pet\nfunction adopt(uint petId) public returns (uint) {\n  require(petId >= 0 && petId <= 15);\n\n  adopters[petId] = msg.sender;\n\n  return petId;\n}\n\n// Retrieving the adopters\nfunction getAdopters() public view returns (address[16] memory) {\n  return adopters;\n}\n\n// Addpets Initially\nfunction addpets(string memory _petname) private {\n  petcounts ++;\n  Pet[petcounts] = Pets(petcounts, _petname, 0);\n}\n\n// Vote for pets\nevent voteevent (\n  uint indexed _petid\n);\n\nfunction vote (uint _petid) public{\n  require(!voters[msg.sender]);\n  require(_petid > 0 && _petid < petcounts);\n\n  voters[msg.sender] = true;\n  Pet[_petid].votecount ++;\n\n  emit voteevent(_petid);\n}\n}\n",
  "sourcePath": "/Users/yuhangsong/pet-shop-tutorial/contracts/Adoption.sol",
  "compiler": {
    "name": "solc",
    "version": "0.5.16+commit.9c3226ce.Emscripten.clang"
  },
  "schemaVersion": "3.4.5",
  "updatedAt": "2022-04-08T03:06:09.469Z",
  "networkType": "ethereum",
  "devdoc": {
    "methods": {}
  },
  "userdoc": {
    "methods": {}
  }
}